{
  "contractName": "MedicalRecords",
  "abi": [
    {
      "inputs": [
        {
          "internalType": "address",
          "name": "",
          "type": "address"
        },
        {
          "internalType": "uint256",
          "name": "",
          "type": "uint256"
        }
      ],
      "name": "patientRecords",
      "outputs": [
        {
          "internalType": "string",
          "name": "patientName",
          "type": "string"
        },
        {
          "internalType": "string",
          "name": "medicalHistory",
          "type": "string"
        },
        {
          "internalType": "address",
          "name": "uploadedBy",
          "type": "address"
        }
      ],
      "stateMutability": "view",
      "type": "function",
      "constant": true
    },
    {
      "inputs": [
        {
          "internalType": "string",
          "name": "_name",
          "type": "string"
        },
        {
          "internalType": "string",
          "name": "_history",
          "type": "string"
        }
      ],
      "name": "addRecord",
      "outputs": [],
      "stateMutability": "nonpayable",
      "type": "function"
    },
    {
      "inputs": [
        {
          "internalType": "address",
          "name": "_patient",
          "type": "address"
        }
      ],
      "name": "getRecords",
      "outputs": [
        {
          "components": [
            {
              "internalType": "string",
              "name": "patientName",
              "type": "string"
            },
            {
              "internalType": "string",
              "name": "medicalHistory",
              "type": "string"
            },
            {
              "internalType": "address",
              "name": "uploadedBy",
              "type": "address"
            }
          ],
          "internalType": "struct MedicalRecords.Record[]",
          "name": "",
          "type": "tuple[]"
        }
      ],
      "stateMutability": "view",
      "type": "function",
      "constant": true
    }
  ],
  "bytecode": "0x608060405234801561001057600080fd5b50610b98806100206000396000f3fe608060405234801561001057600080fd5b50600436106100415760003560e01c806394f0df6114610046578063a0076e8414610078578063c9596248146100a8575b600080fd5b610060600480360381019061005b91906106cf565b6100c4565b60405161006f93929190610909565b60405180910390f35b610092600480360381019061008d91906106a6565b61023b565b60405161009f91906108e7565b60405180910390f35b6100c260048036038101906100bd919061070b565b610452565b005b600060205281600052604060002081815481106100e057600080fd5b90600052602060002090600302016000915091505080600001805461010490610a93565b80601f016020809104026020016040519081016040528092919081815260200182805461013090610a93565b801561017d5780601f106101525761010080835404028352916020019161017d565b820191906000526020600020905b81548152906001019060200180831161016057829003601f168201915b50505050509080600101805461019290610a93565b80601f01602080910402602001604051908101604052809291908181526020018280546101be90610a93565b801561020b5780601f106101e05761010080835404028352916020019161020b565b820191906000526020600020905b8154815290600101906020018083116101ee57829003601f168201915b5050505050908060020160009054906101000a900473ffffffffffffffffffffffffffffffffffffffff16905083565b60606000808373ffffffffffffffffffffffffffffffffffffffff1673ffffffffffffffffffffffffffffffffffffffff168152602001908152602001600020805480602002602001604051908101604052809291908181526020016000905b8282101561044757838290600052602060002090600302016040518060600160405290816000820180546102ce90610a93565b80601f01602080910402602001604051908101604052809291908181526020018280546102fa90610a93565b80156103475780601f1061031c57610100808354040283529160200191610347565b820191906000526020600020905b81548152906001019060200180831161032a57829003601f168201915b5050505050815260200160018201805461036090610a93565b80601f016020809104026020016040519081016040528092919081815260200182805461038c90610a93565b80156103d95780601f106103ae576101008083540402835291602001916103d9565b820191906000526020600020905b8154815290600101906020018083116103bc57829003601f168201915b505050505081526020016002820160009054906101000a900473ffffffffffffffffffffffffffffffffffffffff1673ffffffffffffffffffffffffffffffffffffffff1673ffffffffffffffffffffffffffffffffffffffff16815250508152602001906001019061029b565b505050509050919050565b6000803373ffffffffffffffffffffffffffffffffffffffff1673ffffffffffffffffffffffffffffffffffffffff16815260200190815260200160002060405180606001604052808481526020018381526020013373ffffffffffffffffffffffffffffffffffffffff1681525090806001815401808255809150506001900390600052602060002090600302016000909190919091506000820151816000019080519060200190610506929190610571565b506020820151816001019080519060200190610523929190610571565b5060408201518160020160006101000a81548173ffffffffffffffffffffffffffffffffffffffff021916908373ffffffffffffffffffffffffffffffffffffffff16021790555050505050565b82805461057d90610a93565b90600052602060002090601f01602090048101928261059f57600085556105e6565b82601f106105b857805160ff19168380011785556105e6565b828001600101855582156105e6579182015b828111156105e55782518255916020019190600101906105ca565b5b5090506105f391906105f7565b5090565b5b808211156106105760008160009055506001016105f8565b5090565b60006106276106228461097f565b61094e565b90508281526020810184848401111561063f57600080fd5b61064a848285610a51565b509392505050565b60008135905061066181610b34565b92915050565b600082601f83011261067857600080fd5b8135610688848260208601610614565b91505092915050565b6000813590506106a081610b4b565b92915050565b6000602082840312156106b857600080fd5b60006106c684828501610652565b91505092915050565b600080604083850312156106e257600080fd5b60006106f085828601610652565b925050602061070185828601610691565b9150509250929050565b6000806040838503121561071e57600080fd5b600083013567ffffffffffffffff81111561073857600080fd5b61074485828601610667565b925050602083013567ffffffffffffffff81111561076157600080fd5b61076d85828601610667565b9150509250929050565b60006107838383610890565b905092915050565b61079481610a15565b82525050565b6107a381610a15565b82525050565b60006107b4826109bf565b6107be81856109e2565b9350836020820285016107d0856109af565b8060005b8581101561080c57848403895281516107ed8582610777565b94506107f8836109d5565b925060208a019950506001810190506107d4565b50829750879550505050505092915050565b6000610829826109ca565b61083381856109f3565b9350610843818560208601610a60565b61084c81610b23565b840191505092915050565b6000610862826109ca565b61086c8185610a04565b935061087c818560208601610a60565b61088581610b23565b840191505092915050565b600060608301600083015184820360008601526108ad828261081e565b915050602083015184820360208601526108c7828261081e565b91505060408301516108dc604086018261078b565b508091505092915050565b6000602082019050818103600083015261090181846107a9565b905092915050565b600060608201905081810360008301526109238186610857565b905081810360208301526109378185610857565b9050610946604083018461079a565b949350505050565b6000604051905081810181811067ffffffffffffffff8211171561097557610974610af4565b5b8060405250919050565b600067ffffffffffffffff82111561099a57610999610af4565b5b601f19601f8301169050602081019050919050565b6000819050602082019050919050565b600081519050919050565b600081519050919050565b6000602082019050919050565b600082825260208201905092915050565b600082825260208201905092915050565b600082825260208201905092915050565b6000610a2082610a27565b9050919050565b600073ffffffffffffffffffffffffffffffffffffffff82169050919050565b6000819050919050565b82818337600083830152505050565b60005b83811015610a7e578082015181840152602081019050610a63565b83811115610a8d576000848401525b50505050565b60006002820490506001821680610aab57607f821691505b60208210811415610abf57610abe610ac5565b5b50919050565b7f4e487b7100000000000000000000000000000000000000000000000000000000600052602260045260246000fd5b7f4e487b7100000000000000000000000000000000000000000000000000000000600052604160045260246000fd5b6000601f19601f8301169050919050565b610b3d81610a15565b8114610b4857600080fd5b50565b610b5481610a47565b8114610b5f57600080fd5b5056fea2646970667358221220623a262f285a3fba96b2a37e6297b262714210ceb8e0e07751bdea791e8948a664736f6c63430008000033",
  "immutableReferences": {},
  "source": "// SPDX-License-Identifier: MIT\r\n\r\npragma solidity ^0.8.0;\r\n\r\n\r\n\r\ncontract MedicalRecords {\r\n\r\n    struct Record {\r\n\r\n        string patientName;\r\n\r\n        string medicalHistory;\r\n\r\n        address uploadedBy;\r\n\r\n    }\r\n\r\n\r\n\r\n    mapping(address => Record[]) public patientRecords;\r\n\r\n\r\n\r\n    // Add a new record\r\n\r\n    function addRecord(string memory _name, string memory _history) public {\r\n\r\n        patientRecords[msg.sender].push(Record(_name, _history, msg.sender));\r\n\r\n    }\r\n\r\n\r\n\r\n    // Get all records for a patient\r\n\r\n    function getRecords(address _patient) public view returns (Record[] memory) {\r\n\r\n        return patientRecords[_patient];\r\n\r\n    }\r\n\r\n}",
  "sourcePath": "C:\\Users\\Rithvika Mullapudi\\healthcare-blockchain\\blockchain\\contracts\\MedicalRecords.sol",
  "compiler": {
    "name": "solc",
    "version": "0.8.0+commit.c7dfd78e.Emscripten.clang"
  },
  "schemaVersion": "3.4.16",
  "updatedAt": "2024-12-28T11:00:39.232Z",
  "networkType": "ethereum",
  "devdoc": {
    "kind": "dev",
    "methods": {},
    "version": 1
  },
  "userdoc": {
    "kind": "user",
    "methods": {},
    "version": 1
  }
}